:020000040000FA
:10000000831303138316051406309F0088018601AD
:100010008312A401A5012B20051C1B28A40A0A3069
:100020002402031914280B28A401A50A0A3025026A
:100030000319A5010B28A403FF302402031921286A
:100040000B280930A400A503FF302502031D0B284F
:100050000930A5000B282508332088002408332008
:100060008600442008008207BF348634DB34CF3456
:10007000E634ED34FC348734FF34E734F734FC34B1
:10008000B934DE34F934F1343830A1003830A2000C
:100090003730A300A30B4A28A20B4828A10B4628FF
:0200A000080056
:02400E00F13F80
:00000001FF
